:10000000A88E01207D2D0000956A0000DD2D0000E6
:10001000DD2D0000DD2D0000DD2D0000DD2D0000B8
:10002000000000000000000000000000912B000014
:10003000DD2D000000000000000000003568000019
:10004000552D0000552D0000552D0000552D0000A8
:10005000552D0000552D0000552D0000552D000098
:10006000552D0000552D0000552D0000552D000088
:10007000552D0000552D0000552D0000552D000078
:10008000552D0000552D0000552D0000552D000068
:10009000552D0000552D0000552D0000552D000058
:1000A000552D0000552D0000552D0000552D000048
:1000B000552D0000552D0000552D0000552D000038
:1000C000552D0000552D0000552D0000552D000028
:1000D000552D0000552D0000552D0000552D000018
:1000E000552D0000552D0000552D0000552D000008
:1000F000552D0000552D0000552D0000552D0000F8
:10010000552D0000552D0000552D0000552D0000E7
:10011000552D0000552D0000552D0000552D0000D7
:10012000552D0000552D0000552D0000552D0000C7
:10013000552D0000552D0000552D0000552D0000B7
:04014000552D000039
:1001440053B94AB9002908BF00281CBF4FF0FF313A
:100154004FF0FF3000F06CB9ADF1080C6DE904CE3E
:1001640000F006F8DDF804E0DDE9022304B070478E
:100174002DE9F047089D04468846002B7DD18A422C
:1001840017463FD9B2FA82F242B1C2F1200091403F
:10019400974024FA00F0944040EA01084FEA174CD3
:1001A400230C1FFA87FEB8FBFCF60CFB168106FB3A
:1001B4000EF043EA0143984205D9FB1802D2984253
:1001C40000F22481013E191AA3B2B1FBFCF00CFB2E
:1001D400101100FB0EFE43EA0144A64505D93C1963
:1001E40002D2A64500F20F81013840EA0640A4EB92
:1001F4000E0400261DB1D4400023C5E90043314656
:10020400BDE8F08702B9FFDEB2FA82F2002A50D1CB
:10021400CB1B4FEA174E1FFA87F80126210CB3FBBC
:10022400FEFC0EFB1C300B4608FB0CF941EA0041B6
:1002340089450AD979182CBF01230023894502D99D
:10024400002B00F0D9800CF1FF3CA1EB0901A3B213
:10025400B1FBFEF00EFB101108FB00F843EA014469
:10026400A04505D93C1902D2A04500F2C980013845
:10027400A4EB080440EA0C40BCE78B4209D9002DEA
:1002840000F0B1800026C5E9000130463146BDE8E2
:10029400F087B3FA83F6002E46D18B42C0F0A680D5
:1002A400824240F2A3803046002DA8D0C5E9004820
:1002B400A5E79740C2F1200301FA02F04FEA174E76
:1002C400D94024FA03F31FFA87F894400343B1FB9F
:1002D400FEF01E0C0EFB101100FB08FC46EA014167
:1002E4008C4509D979182CBF012600268C4502D9E2
:1002F400002E00F093800138A1EB0C019BB2B1FBFE
:10030400FEF60EFB161106FB08FC43EA01418C4580
:1003140005D9791802D28C4500F28780013EA1EB01
:100324000C0346EA004679E7C6F1200703FA06F40F
:1003340002FA06FC01FA06FEFA4020FA07F8F94030
:1003440000FA06F3224348EA0E044FEA12484FEA41
:10035400144E1FFA82F9B1FBF8FA08FB1A110AFBD2
:1003640009F04EEA014E70450AD912EB0E0E2CBF6D
:1003740001210021704501D9002952D00AF1FF3A28
:10038400AEEB000EA4B2BEFBF8F008FB10EE00FBCF
:1003940009F944EA0E4EF14505D912EB0E0E01D2CD
:1003A400F14538D8013840EA0A40AEEB090EA0FB0B
:1003B4000C89CE4541464C4602D306D1434504D26E
:1003C4000138B8EB0C0169EB020415B35A1A6EEB51
:1003D400040EF2400EFA07F72EFA06F3002617432E
:1003E400C5E900730BE72E46284608E7841A61EB3B
:1003F40003010120884657E7ACF1020C394424E795
:1004040002383C4434E702383C44EEE6023E3B44C6
:10041400D9E62E46F3E602389644C4E70238394456
:100424006AE7AAF1020A9644AAE7023E394476E74B
:10043400704700BF7FB5404B404A4148C3F800268F
:100444004921C3F80426C3F80826C3F80C26C3F8C8
:100454001026C3F81426C3F81826C3F81C2606F081
:1004640094F805F020FC374800F080F828B94521BD
:10047400344A354806F089F8FEE7344803F08CFF27
:10048400044602698168136823F0806313600B6873
:100494004FF488721A219847A36820465B6801A923
:1004A400984790B9019B5A010FD44FF05023D3F8C9
:1004B40000340BB1DB0708D54921254806F065F85F
:1004C40001F0E6FE234802F063FA01A800F074FC90
:1004D400214B1B68834204D04521204806F055F87F
:1004E400FEE7039A49211E4806F04FF849211D48AA
:1004F40006F04BF869469DF8080000F043F8009BAD
:10050400039C1C44019B1D8966194FF02002EFF3E4
:10051400118382F31188BFF36F8F06F08AF900F01C
:1005240033FF635983F308887368984745210E485D
:1005340006F02BF8FEE700BF008001503546526EEE
:10054400407A0000597A00006C7A00008B7A00002F
:10055400927A0000C8760000F4460120B67A0000C2
:10056400D97A0000087B00002D7B000010B5044CF4
:10057400236813B903F010FF2060206810BD00BF8A
:10058400F046012008B540B1024600230448452145
:1005940005F0FBFF6FF0150008BD0860FCE700BF25
:1005A400507B00001FB5074A03460C4610681946E5
:1005B40001AA06F08DFB18B9019B2360029B6360BE
:1005C40004B010BDF04601202DE9F04FDFF81C9275
:1005D400DDB01546DDE968481E46DDF898B1D9F866
:1005E400007000F09FFE01227E4B3CA8C3F800255A
:1005F40004F08AFACDF814903CB1B8F1000F04DD90
:10060400424621463CA805F09EFE4FF000096B8946
:10061400B5F808809844EB689844C8454ED80FA9AB
:100624003CA804F0E3FA00226E4BC3F80025C3F89B
:1006340000256A9B23B1202218460FA906F05CFA14
:1006440000233246009329464FF6FF7309A805F0AC
:100654002BFB0446002844D14FF0FF35DFF890A16E
:10066400DFF8808103900DF11E0307AA08A909A8E9
:1006740005F066FB041E34DB40F0A480BDF81E9038
:10068400B9F1100F38D1BDF81C90B9F1200F40F02A
:10069400A3804B46304608993CAA05F0A4FF0446C3
:1006A400F8B94A463CA90FA805F0C1FB04464E4BD5
:1006B4001B68834215D101230393D4E7679AA8EBFF
:1006C40009039A4228BF1A464946134692463046C1
:1006D4005A4605F088FF044638B10022414BC3F85E
:1006E400002520465DB0BDE8F08F524659463CA82F
:1006F40005F029FED14490E7B9F1010F3FD1BDF8CF
:100704001C30202B68D8304608993CAA05F06BFFB2
:1007140004460028E5D19DF81C50202D0AD8DAF8AB
:100724000030DFF8D0B00493049B9C4205DB002327
:10073400C8F800354FF0FF341DE000F0F3FDC8F8B1
:1007440000951FA804F0E0F9DBF804201FA8126844
:100754005BF8081B05F0F7FD17A91FA804F046FA7B
:1007640000223CA9C8F8002517A82A4606F0B4F9C7
:1007740018B9C8F80005254675E70134D4E7B9F17E
:10078400220F7FF470AF002D19DBDAF80030AB4292
:1007940015DDBDF81C30802B1ED8304608993CAAC4
:1007A40005F021FF044600289BD1EDB22021BDF8BD
:1007B4001C3000953CAA0FA800F01EF807464FF025
:1007C400FF3550E7039B53B1074B1B68BB4201D075
:1007D400059B1F683C4684E74FF0FF3481E7012402
:1007E4007FE700BF00008450F4460120004501204B
:1007F400D0760000D47600002DE9F04196B017467B
:100804001D469DF87020354B0E4653F8321003EB0D
:10081400C2035B688046186801913023014402AA30
:1008240001A805F01DFD10B14FF0FF3053E0DDE9E4
:1008340001431C44214606AB03AA01A805F038FD78
:100844000028F1D1049A072AEED12549059806F02B
:1008540043F90028E8D1079A082AE5D121490898E4
:1008640006F03AF90028DFD1214602AA01A805F0D2
:100874000BFD0028D8D1DDE9013213449C42D3D1C9
:10088400412AD1D13D443023294603AA02A8029724
:1008940005F0E6FC0028C7D1DDE9023213449D428D
:1008A400C2D32A4602A906A805F095FA0028BBD1AE
:1008B4002A4602A90EA805F08EFA0028B4D1202EEB
:1008C400B2D101990B78042BAED13346404606AA27
:1008D400013100F03FFD16B0BDE8F081D476000090
:1008E400767B00007E7B00002DE9F041022386B078
:1008F4000D466F460026DFF86C80ADF8003017F81F
:10090400010B01A901F016FA0446D8B90198102385
:10091400816802AA103905F066FE044628B10198E0
:1009240005F060FE0EE00126E9E71022414602A828
:1009340006F0D2F850B1019805F054FE002EF2D022
:100944004FF0FF34204606B0BDE8F081019806F070
:100954007EFB0423A0F108012A46019805F043FE1A
:100964000446DCE7947800002DE9F041384B88B068
:10097400064600200D461C6805F08CF906A9C0B295
:1009840001F0D8F9002857D1294605F083F92C2421
:1009940007A9C0B204FB056401F0CCF9002836D0E5
:1009A4004FF02C0808FB05F806EB0807396911F02D
:1009B400100137D14FF480730193264B22460093E4
:1009C4000846CDE90311069B0291FFF7FDFD04469D
:1009D400214B56F8082006989A420CD13A89FB68B4
:1009E400D1438B4207D813448268934203D21B4BF2
:1009F4001B68A3421DD045B38268002105F042FE66
:100A0400174A4521174805F0C0FD012411E0079855
:100A140005F071FE0746079805F0E4FD631EE21C2D
:100A240093420DD1002DF0D03046069905F0FAFA24
:100A34002C46069805F0D6FD204608B0BDE8F081A6
:100A440013F8011FB942EBD0AAE7074AD9E700BF60
:100A540000450120DE6001203DB8F396F4460120F4
:100A6400877B0000997B0000917B000073B50D46E5
:100A7400002104462846CDE9001105F092FA30B36E
:100A8400164E2268B24203D1204601AA05F0FFF9AE
:100A9400E36AB34204D16A460121204605F0F7F91E
:100AA400DDE90032934288BF0193019BAB60019A58
:100AB4002946204600F026FB094B1A68002A03DD6C
:100AC4005721084805F061FD002002B070BD05F112
:100AD4000801FFF709FFAB680193E8E73DB8F39617
:100AE40058570120C17B00002DE9F84F8A469046F3
:100AF40099460026DFF870B0194C1A4D0B9B9E42A4
:100B040001D300200FE00B9B50469F1BB7F5806F6D
:100B140028BF4FF48067144A3B4606EB090105F0F1
:100B240062FD10B10120BDE8F88F0A993B465A4690
:100B34004046711805F074FD0028F3D1C4F800563E
:100B44003E44C4F80456C4F80856C4F80C56C4F815
:100B54001056C4F81456C4F81856C4F81C56CDE7F9
:100B6400008001503546526EDE5C01202DE9F043D1
:100B7400894B0446602285B00F4600211E6805F0AB
:100B8400E6FF0021854B08466362854B236505F02B
:100B940081F804F12001C0B201F0CCF80121002059
:100BA40005F078F804F14C01C0B201F0C3F8054631
:100BB400204605F0CDF9024638B14FF48072572132
:100BC400784805F0E2FC01238DE00146204605F05B
:100BD400A6F9804618B1002257217348F1E7204650
:100BE40000F0A6F90028EED0684605F0D1F9694670
:100BF400204605F06CFA18B1424657216B48E0E7ED
:100C0400684605F0CEF980F001006A46C1B220467C
:100C140005F085F902460028DDD1684605F0C1F9E2
:100C2400804660BB69462046FFF720FF9DF80730E9
:100C340084F85830033B012B06D8404605F094FA5B
:100C440010B1FF2384F858309DF80730023B022B83
:100C54000BD8002005F076FA38B1FF2384F8583019
:100C64004521534805F091FCFEE794F85830FF2BDA
:100C7400F6D06A460021204605F051F9A3E79DF815
:100C84000790B9F1010F23D1104603F0C7F8831E72
:100C9400022B80460DD849462046FFF765FE454B9A
:100CA4001B68984205D001280CBF4FF001084FF093
:100CB400050884F8588094F85830042B8DF80730D0
:100CC40014D8012B18D82FD0FF2384F858302BE0E8
:100CD40001212046FFF748FE364B1B68984214BF9B
:100CE40005239DF8073084F85830E4E7052BEBD151
:100CF400002005F039FA12E069462046FFF7B6FEF7
:100D040094F858300546DA1E012A0BD8002005F065
:100D14002BFA05460028D7D1002005F013FA054622
:100D240010B1D1E7022BF7D094F85830FF2B04D13F
:100D340045211F4805F029FCFEE7012B06D06A4631
:100D44000021204605F0EBF80546B8B900212046FD
:100D5400FFF70AFE0646DFF85C80D8F800309842B8
:100D64000CD110220021684605F0F1FE236AD8F860
:100D740000605A783A715B683C60BB60E06C05F0D7
:100D840031FC206A05F02EFC002D14BF28463046A5
:100D940005B0BDE8F08300BF00450120584701209D
:100DA400584F0120F07B0000327C00005E7C000084
:100DB400887C0000F446012008B501460148FFF78D
:100DC400D5FE08BDF846012073B516461C4633B35C
:100DD400436A5D686379012B15D101BB1F4B2268FF
:100DE4001B689A4298BF0025002004F053FF01A914
:100DF400C0B200F09FFFF0B10125019805F0F2FBAD
:100E0400284602B070BD022B09D12368012B08D9F2
:100E1400124A1268934202D8B1FA81F149090025B5
:100E2400E2E7FCD10029DFD00129F8D12179023988
:100E340018BF0121F3E7294620233246019805F023
:100E4400D2FB05460028D7D1002CD6D035680448FB
:100E54002D1A18BF4FF0FF35CFE700BF044501201E
:100E64003DB8F3962DE9F04F07460C4685B0014690
:100E74000020164604F0E2FF051E52DB3846E46DFE
:100E840004F0E6FF5FFA84F94FF0000A4FF0010B1B
:100E94004FF0FF3405F1FF3809FB08089DB9BAF19A
:100EA400010F03DD4521214805F06FFB631C06D0CB
:100EB400FF2C2ADC40F2011301343460B38028464D
:100EC40005B0BDE8F08F6B1E009341460123384600
:100ED4000DF10F0205F087FB031E019323DB0122B2
:100EE40038460DF10F0106F0C3F8019B40B15B4594
:100EF40001D00AF1010A9B46009DA8EB0908CDE741
:100F0400B4F1FF3F08BF2C46F5E70223A4F5807433
:100F14007371631004F001040133013433603471DC
:100F2400CDE70725CBE70125C9E700BF947C000086
:100F3400816A426D38B5914208D0531C8B4205D06A
:100F44005721144805F021FB002038BDB1F5807FFE
:100F54001CD957211048F5E7446A056D04EBC30416
:100F640005EBC30564686D68AC4202D057210B4899
:100F7400E8E701339A42EFD1914205D9436A03EB82
:100F8400C2025368A342F1D10120DEE700231C46CC
:100F9400F0E700BFB77C0000EF7C00001E7D00007E
:100FA40000B589B0022004A906F0C5F89DF8102008
:100FB400012A41D0254B2649032A18BF0B469DF828
:100FC4001320492102929DF81220224801929DF893
:100FD40011200092204A05F0D8FA062006A906F04E
:100FE400AAF89DF81820012A28D0184B1849032A7A
:100FF40018BF0B469DF81B20492102929DF81A2028
:10100400144801929DF819200092144A05F0BDFA83
:101014009DF81030012B13D19DF81230032B0FD102
:101024009DF81830012B0BD00D48492105F0ADFA7D
:10103400022009B05DF804FB0A4BC0E7094BD9E76D
:101044000948492105F0A1FA0020F2E74F7D00008C
:10105400557D0000677D0000597D0000A87D0000DB
:10106400B87D00004A7D0000D77D000070B50646BB
:1010740018464B6814461D4A03F0FF2393420D465D
:1010840086B02ED10B68012B2BD104A906F053F89E
:101094009DF81020012A26D0154B1649032A18BFA3
:1010A4000B469DF81320492102929DF81220124804
:1010B40001929DF811200092104A05F066FA9DF8FD
:1010C4001030032B0DD12146304604F0ABFF2046EF
:1010D40006F028F82046A96804F0CAFE204602F06B
:1010E4003FFE06B070BD064BDBE700BF0001000405
:1010F4004F7D0000557D0000677D0000A87D000045
:101104004A7D00002DE9F04F436A2DED028B0C4619
:101114005E680546012100238BB033449A42084699
:1011240001F10101F9D8784F3860204604F039FF05
:10113400BB46C8B1E86D04F07CFE0022AB6A013BFB
:101144003244824201D2013BFAE7DBF800209A42A2
:101154000AD357216D4805F018FA0123E3710BB047
:10116400BDEC028BBDE8F08F08A9022000F0E2FD7F
:1011740009A9062000F0DEFD062321462846099A27
:10118400FFF774FF6379012B08D1DBF80070DFF8F7
:1011940080A1DBF80030A7B90123236002230127D3
:1011A400DFF86C8163710593DBF80030DDF8209083
:1011B4009F424DD9484605F015FA099805F012FAF0
:1011C400CDE7226801339B1A9F423FD86B6A012AFC
:1011D400196853F8370003EBC70353F8083CDDF8EC
:1011E4002080A3EB010308EE103AA0EB010912D111
:1011F400E268099B022A0AD041462846039304F078
:1012040011FF22464146284604F042FF039B19463B
:10121400284604F007FF32464946404604F000FFE2
:1012240018EE103A424641462846CDE90096FFF7AB
:101234005BFC2146284604F0C1FE23680133236089
:1012440020B1DAF800300133CAF80030013FA0E7DA
:1012540023689F4256D3696A286D51F83730FA00E3
:1012640004930B68083A50F802C00393036820798A
:10127400DDF824A00128ACEB030341D1895807937E
:10128400039B3246C91A4846069104F0C9FE0699E2
:10129400079B4A4600912846514601960693FFF75C
:1012A40023FC2146284604F089FE059B2371069BF6
:1012B40020B1D8F800200132C8F80020194632467F
:1012C4005046069304F0ACFE069B4946009328461C
:1012D400DDE9032301969B1A5246FFF705FC2146DC
:1012E400284604F06BFE2368013323604FF00103AA
:1012F400237138B1D8F800300133C8F8003001E068
:101304000228DBD001374FE704450120EE7D0000C1
:1013140058570120024B0A461B680021184700BF9A
:101324000845012070B5094D2B7853B90126084CA6
:10133400C4F8006503F08AFC28B92E70C4F80005CF
:1013440070BD0020FCE74FF0FF30F9E7DE610120BB
:101354000000845070B5AEB01D460446CDE90221AC
:10136400FFF7E0FFDDE902210123064E05A8C6F8D8
:1013740000352346009505F0EDFF0023C6F800353F
:101384002EB070BD000084500122124B12491A6025
:101394004FF0FF33C1F84833C1F8083301F58051E9
:1013A4004A60043100210D4AC2F84833C2F80833B8
:1013B400A2F55042C2F80015C2F8083302F5805273
:1013C400C2F80015C2F808334FF05022C2F80833AF
:1013D400704700BF044001500040015000500150CC
:1013E4002DE9F043079C1CB920461460BDE8F08346
:1013F4000325B4FBF5F505EB4507BC4218BF0135E1
:10140400B5F1804F05D34FF0FF3313606FF00B003D
:10141400ECE7AD0001358D4200D808B91560F5E759
:1014240006460025DFF8B4E0BD4231469C4606F18D
:10143400040603F1030329D3A54222D20135A542B0
:1014440028BF00239CF80060244F38BF9CF801306B
:101454004FEAA60C17F80CC0A54281F800C007EBB0
:10146400131C2FBF3D239B0003F03C03FB5C3601A0
:101474008B703D2306F030061CF80660CB704E706E
:101484000431081A106000200870AFE713F803CC89
:1014940013F8021C4FEAAC091EF809904FEA0C1C21
:1014A40013F8018C0CF0300C06F8049C0EEB1119A7
:1014B40019F80CC0890006F803CC01F03C010EEBCE
:1014C400981C1CF8011008F03F0806F8021C1EF8CE
:1014D4000810033506F8011CA6E700BFF87E0000DB
:1014E4002DE9F04300273C463D46079EDFF828815E
:1014F400B5420AD32E4604E00135AE420EF1010E88
:1015040005D1CCBB1460002056E04FF0000E13F858
:1015140005C0BCF1200FEFD0AE42F2D0A6EB050916
:10152400B9F1010F15D9BCF10D0F12D103EB050967
:1015340099F80190B9F10A0F1CD0BEF1000F05D142
:10154400BCF13D0F08D10137022F08D96FF0150007
:1015540032E0BCF10A0FEFE71CF0800FF6D118F867
:101564000CC0BCF17F0FF1D0BCF13F0F01D8002FAC
:10157400ECD101340135BBE7062504F0070CE4087F
:1015840005FB0CFC6C430CF1070CE41B04EBDC04C2
:1015940078B18C420DD80027014603253C46DFF87C
:1015A40078E0DFF878801E449E4207D1091A116062
:1015B400A9E76FF00B001460BDE8F08313F8019BFA
:1015C400A9F10A0C5FFA8CFCBCF1160F04D828FAB6
:1015D4000CFC1CF0010FE7D11EF809C00134BCF16A
:1015E400400F08BF013D0CF03F0C042C4CEA871758
:1015F400DAD17DB13C0C012D0C7002D101310024F3
:10160400D2E7022D4FEA17244C7016BF8F700231B7
:101614000331F4E72C46C7E7787E00000900400058
:101624000B6801330B60014B1B6818470C45012004
:1016340007B50B46002102460191034801A900F0B9
:10164400EDF803B05DF804FB251600002DE9F74F13
:10165400B0F81890044619F0080893460ED00129F2
:101664000CBF49F0100949F02009A0F818908BF339
:101674001188BFF36F8F03B0BDE8F08FDFF898A136
:1016840009F00709022907D1204604F0CFFE0028FB
:10169400EDD00128238B4DD16769218B002F15DAFA
:1016A400256821F00701C4E9008841F00101218384
:1016B4000026218B01F007024A4502D0A368002BC3
:1016C40059D10DB9002E71D0002355E001F0070364
:1016D4005A1F012A1FD821F00701062B256889B259
:1016E400C4E900880CD1002D2B4638BF00232BB150
:1016F400628B1B6801326283002BF8D141F0020136
:101704002046218304F092FE0028D1D0238B43F09D
:1017140020032383CCE7042B0AD121F0070189B2EB
:101724002046218304F082FE10B141F02001218380
:101734000025BDE7032809D1226923F007031668B1
:1017440043F00603002523832F46B2E7042806D17D
:10175400226923F00703566843F00403F2E70528DF
:1017640006D1226923F00703966843F00503E9E7ED
:1017740000252E46E8E7012341F0080121838BF37D
:101784001188BFF36F8F03BB002D34D116B15146BE
:101794002046B0474FF02003EFF3118B83F31188F9
:1017A400BFF36F8F238B23F008032383238BDA0685
:1017B4002AD5012123F010032383B4F8189009F0EB
:1017C400070900297FF45EAF51E7A1680029DBD047
:1017D4000B68002B38BF0023994620463B46D1F8BE
:1017E40004B00192D847019AB9F1000FCCD0494610
:1017F400D9F80030EDE729463B46204601922D6892
:1018040004F030FE019ABFE713F020011EBF23F05D
:10181400200302212383D0E7956400002DE9F04FD3
:101824008B464FF0000A8FB01F46531E0090019361
:10183400019B58785C1C252822D100204FF0FF36EC
:10184400014634464FF00A0E03F1020C02909CF854
:101854000020CDF804C0392A0CF1010C58D81F2AF5
:1018640018D8002A00F005825946009B2520984785
:10187400019B59461878009B98470AF1020AD7E75A
:10188400002800F0F6815946009B98470AF1010AA6
:101894000194CDE7A2F12003192BE5D801A555F851
:1018A40023F000BF111900006D1800006D1800002E
:1018B400111900006D180000911900006D18000046
:1018C4006D1800006D1800006D180000D319000099
:1018D400111900006D180000E71900009F1900009D
:1018E4006D180000AB190000C7190000C7190000EB
:1018F400C7190000C7190000C7190000C719000064
:10190400C7190000C7190000C719000010469EE758
:10191400582A00F04581A2F16303DDB2172DA3D844
:10192400172BA1D801A555F823F000BF011C000016
:101934000D1A00006D1800006D1800006D180000ED
:10194400ED1900000D1A00006D1800006D1800005C
:10195400ED1900006D1800006D1800006D180000EE
:101964004B1B00006D1800006D180000E31B000005
:101974006D1800000D1A00006D1800006D180000AD
:101984004B1B00006D180000ED190000594625207E
:10199400009B98470AF1010A4AE7029B002603F0DC
:1019A400FE03029353E7002C0BDA002E0BDA029BA2
:1019B400002B00F05A8124EAE4740EFB0424303C2A
:1019C40045E7002EF7DB0EFB0626303E3FE7002EF0
:1019D40057F8043B01DB1E4639E71C1EBFF637AF40
:1019E40064420223029332E7682A03D1682906D1AC
:1019F40048212CE76C2A02D16C2900F03881002997
:101A04007FF432AF114622E77A2908D13D4655F8D2
:101A1400043B98464FEAE379752A19D111E06C2901
:101A2400F4D04C2905D1FD1D25F00705F5E8028900
:101A3400F2E73B68752A984607F1040506D14FF092
:101A44000009202878D18D4F013C0CE04FEAE3795E
:101A5400B8F1000F79F10003F3DAD8F10008884FE8
:101A640069EB4909013C0DAB079300230393039BE6
:101A740040460693013B494603930A220023FEF79E
:101A84005FFB079B303203F8012940460A2249468E
:101A940007930023CDE90489FEF752FBDDE9042313
:101AA400002B08BF0A2A80468946E0D2069B0EAA6C
:101AB400C3F1010903EB0208002EA8F1040804DABB
:101AC400029B13F0010F18BF2646A6EB0903002B57
:101AD4000393029BD4BFA4EB0904A41B9A0740F10F
:101AE400AE80AAEB070606EB070A17F8010B0028DD
:101AF40040F0A780039E013E40F1A780039B4E4621
:101B04005A1E0132ACBF1F460027013E40F1A2809D
:101B140009F1FF320132ACBF4B460023264603EBEA
:101B24000709013E40F19C80631E0133B8BF0024C5
:101B3400A1442F46CA447BE62B280ABF514F524F7B
:101B440004F1FF348FE7702A2AD13D4655F8041B6F
:101B540000295DD088464FF000094C4F023C02F04A
:101B64006002A2F1390E00220DF1340C08F00F03CB
:101B7400092B88BF73443033B9F1000F0CF80139D5
:101B840008BFB8F1100F4FEA181302F1FF3043EA0F
:101B940009734FEA19111ED2C2F101090EAB89E78C
:101BA4006C2906D13D4655F8043B4FF00009984690
:101BB40006E04C29F6D1FD1D25F00705F5E802895C
:101BC400232806D1314B12F0200F314F18BF1F4686
:101BD400C4E72D4FC3E7024698468946C6E73D460B
:101BE40055F8048B404604F064FF002E814602DB66
:101BF400B042A8BFB1460026234F66E73D4655F8DC
:101C0400043B4FF001098DF820300DF12008F2E774
:101C14004FF00509DFF87C80EDE759462020009B52
:101C24009847013EF9D5621E531CACBF21460021E2
:101C3400C4F10004B8BF00248A44144451E7264682
:101C4400EFE75946009B98474DE75946009B3020E3
:101C5400984750E7594618F8010B009B984754E7FA
:101C64005946009B202098475BE70123BAE64C21A4
:101C7400EDE550460FB0BDE8F08F00BF8B84000047
:101C8400387F00003A7F00007F8700003C7F00001F
:101C94003F7F0000427F000007B501904FF0200213
:101CA400EFF3118382F31188BFF36F8F04F0C1FD4A
:101CB400019801F05FFA034804F0ABFB00F0D0FF99
:101CC400FCE700BF487F00004FF02002EFF31183D0
:101CD40082F31188BFF36F8F0121044AC2F84015C3
:101CE40083F31188BFF36F8F002070470090035077
:101CF40020B1034B800143F001031847704700BF34
:101D0400C0760000094B30B51D68094B1C680023E0
:101D14009D4202DC0021084630BD1A01A25C04EB9E
:101D240003118242F7D00133F2E700BFA877000025
:101D340010450120084B10B51B680C462BB1FFF76A
:101D4400E1FF28B12060002010BD6FF00C00FBE71C
:101D54006FF00100F8E700BF1045012030B589B0ED
:101D64000C4615460190FFF7CDFFB8B143682268D1
:101D740002938368C068CDE903350023CDE90623C7
:101D8400059304F00FFC60B1074901AA04F0A4FF15
:101D9400079808B9059B236009B030BD6FF01500A2
:101DA400FAE76FF01200F7E7AD65000070B504467E
:101DB4000C250D480E46231A9A100C4B4021534310
:101DC400DBB25D4305F14003184404F0A6FC011E98
:101DD40004DB074B2B445B689847002120463346BD
:101DE400BDE87040184700BF70570120B76DDBB6DF
:101DF400F47600002DE9F0410F4C104D031B9B10AD
:101E04005D43EBB20C255D43074605F140000E46E9
:101E14002044402104F09AFC011E08DB084B2C44AA
:101E2400C4E90E36074B5B59BDE8F0411847384604
:101E34003346BDE8F041184770570120B76DDBB653
:101E4400B9670000F476000070B500220121044651
:101E5400052000F0C9FE052000F0A8FE0F4802F09E
:101E640005F90F4B984215D105F08BF926690D49F8
:101E7400304604F02BFB00280BDB01253564246974
:101E8400084904F11C0004F021FB002801DB0020B8
:101E9400E56470BD6FF00400FBE700BFE91E0000BD
:101EA4000000AD0B0C77000073B50C23014600262F
:101EB4004B430A48C4184033D4E90E521844A6636D
:101EC400019204F061FC35B12B46019A044802B03A
:101ED400BDE87040184702B070BD00BF70570120C4
:101EE400DC45012010B1012804D07047034B1B6C62
:101EF4005B0701D1FFF7D8BF704700BF70570120BF
:101F040008B54FF02003EFF3118183F31188BFF379
:101F14006F8F124A136843F0020013F0010310603C
:101F24000CD04FF05022D2F80C34D2F80C2413F019
:101F3400010303D00A4804F027FC012381F311882C
:101F4400BFF36F8F23B1BDE808400020FFF7ACBF9B
:101F54000120BDE8084002F099B800BFC057012035
:101F6400B0570120074BD3E8EF2F22F00201C3E85A
:101F7400E01F0028F7D1D30702D4012002F0B8B83B
:101F8400704700BFC05701202DE9F84301220646DF
:101F94003649D1E8EF3FC1E8E02F0028F9D133B941
:101FA400334934484B60CB608A6004F0A2FA731E54
:101FB400012B32D8012E07D14FF05023D3F81C3413
:101FC40003F00303022B28D005F0B8F9044618B92E
:101FD400294B1B78002B41D14FF02003EFF31185DF
:101FE40083F31188BFF36F8F0124244FDFF89080AF
:101FF400DFF890904FF05022D2F81834D2F8182419
:10200400D2030CD503F00303022B01D0012E06D119
:10201400F4B185F31188BFF36F8FBDE8F8832846C8
:1020240000F02CFE4FF05022D2F81835DBB2012B11
:10203400E0D139680029DDD00021396039680221F6
:10204400C2F818152022C8F88021C9F80030D1E759
:102054004FF050230222C3F80423DEE74FF050234D
:1020640002220546C3F80823BFE700BFC457012076
:10207400605701208C570120A366012004510050B1
:1020840000E100E008500050F8B5002427460F4E48
:102094000F4B104A18461D6804B1F8BDD2F804135A
:1020A400C903FAD531680029F7D0346031684FF498
:1020B4008031C2F848130124D2F8401525B100201C
:1020C4005A681F60A847E3E70560E6E740510150FE
:1020D400CC5701200050015038B500244FF4803310
:1020E4004FF400120D4D0121C5F80845C5F804331D
:1020F4000B4B1520C3F88021224600F075FD1520F6
:1021040000F054FD0123074A02201360064A2B60A5
:102114001360FFF739FF204638BD00BF005001505F
:1021240000E100E008500150D4570120014802F0BA
:1021340059BA00BFAC770000F7B5264D286883680C
:102144005B6C03B19847286883685B6BA3B9224C26
:10215400224E286883689B698BB101220DF1070127
:10216400984701280BD1236893B933684BB94521AB
:102174001B4804F00AFA02E098470028E7D103B0AC
:10218400F0BD71681A688B42326000D172602360BE
:1021940014499DF807700A880846B2F5007F06D2F4
:1021A400236802F1010C1344A1F800C01F720A2F26
:1021B400CFD1236802880C495A6000221A604E6805
:1021C40026B9C1E9003302802260C1E733604B6065
:1021D400F9E700BF005C0120E0570120D857012037
:1021E4009F7F0000DC5C0120F85B0120044B10B5EC
:1021F400044618688368E1B25B689847204610BDBE
:10220400005C0120F8B506460B4615464FF0200247
:10221400EFF3118C82F31188BFF36F8F194C21688F
:1022240049B1194A5068884205D0002008605068B6
:1022340098B9C2E90011154A116829B157680868AC
:10224400B942106008BF50608CF31188BFF36F8FE0
:10225400216029B900202860F8BD01605160EAE7D7
:1022640048680831F6D05C1E8442A8BF0446304654
:10227400224604F041FC0023335501232B60E0186F
:10228400EAE700BFE4570120D8570120F85B01209A
:1022940037B500251E4B1F4AC3E900551E4B03F5F5
:1022A40002711360C3F80852196051601B4802F0B0
:1022B40073F81B4C206038B3836823B19B6C13B153
:1022C4002A4618499847206883685B6B83B198470E
:1022D40070B90023144A2068138082681C46926AED
:1022E40082B984F31188BFF36F8F002003B030BD2F
:1022F400206883689B69002BEBD001220DF1070154
:102304009847E5E79047ECE74FF0FF30EEE700BF72
:10231400F85B0120D8570120E8570120CE7F000048
:10232400005C01203D210000DC5C012038B54368DD
:10233400044698188028154608D80648184404F01E
:10234400DBFB002062682A44626038BD4FF0004025
:10235400FBE700BFDF61012040F606132DE9F041E1
:10236400DFF81481D2B0D8F80000ADF80C303D4B42
:1023740081885C680378C4F3072201330370002367
:1023840042EA042242800A0242EA11224370828015
:102394000821009341F2210203F0F0FF0123324FA0
:1023A40041F221022146ADF810000093034638465D
:1023B40003F0E4FF02252D4E40BA3368ADF8100057
:1023C400022103A85B68984704F10A035BBA0DF184
:1023D4001201022206A8ADF8123004F08DFBD8F8E1
:1023E400001008220DF11A00ADF8125004F084FB1D
:1023F400BDF8120006AB083080B222463946ADF86B
:102404001200184404F078FBBDF8120006AB204417
:1024140080B22A46ADF8120004A9184404F06CFBFB
:10242400BDF8123005AA2B449BB2ADF812300093CC
:10243400AD2106AB26A8FEF7D3FF05993368ADF8A6
:10244400121026A85B6889B29847336829465B68EE
:10245400074898474921074804F097F852B0BDE867
:10246400F08100BF14450120DF610120045C0120DC
:10247400E47F0000E77F0000085C012038B50C4CC5
:102484000C4D4FF0FF322146284604F028FF0A493C
:10249400204604F003FA00230022204604F0FCFE48
:1024A4002146284604F02CFFBDE83840FFF754BF0E
:1024B4001C5C01200C5C0120EF7F00002DE9FF4132
:1024C4000C681B4F02380D46C4F500710090194B7F
:1024D400381903AA0131FFF703F8044628BB2B6817
:1024E400039A1344022B2B601BD93988023B0E023A
:1024F40046EA1126B6B29E4213D14FF001080346B4
:1025040041F221023146CDF80080B81C03F036FFB9
:1025140038B9022E05D92B68023B1F442B60BC70CE
:102524004446204604B0BDE8F0814FF0FF34F8E79C
:102534005F620120626401202DE9F04F07290446FF
:10254400B5B060D9057815F0FD055CD14288A1F1DC
:102554000806130243EA12239BB2B34253D3828880
:10256400B64BB7491860130243EA122383802A4604
:10257400B4484D6004F083FEA388012B40F0EC8145
:10258400E3792BB1012B00F09C80FFF777FF3AE051
:102594004FF0FF32AC49AB4804F0A1FEAB49AA4866
:1025A40004F07CF94FF0FF32A7480AA904F094FE26
:1025B40000260027A64DDFF8C082DFF8C09231461E
:1025C400002003F067FB09A9C0B2FFF7B3FB044680
:1025D40058B92023014612AA099804F004F8129B62
:1025E400AB4216D0099803F0FDFF002F08BF012E5F
:1025F4000CD10AA9944804F083FE9349914804F04D
:102604007FFEFFF7A9FE35B0BDE8F08F0126002755
:10261400D5E740230DF1680A019321462046CDE910
:102624000344099B0294CDF800A012AAFDF7CCFF45
:102634000028D7D1099803F0D5FF4FF0FF320EA937
:102644000AA804F04CFE41460EA804F027F93246CD
:102654003B460EA804F020FE49460EA804F01EF9DD
:102664009DF85C10504604F0F7F84FF02E0B34AB95
:10267400441C18449DF85D1000F868BC0AEB040083
:1026840004F0EAF834AB2044441C1844BDF85E104E
:1026940000F868BC0AEB040004F0DEF834AB204414
:1026A40003440130189903F868BC504404F0D4F88A
:1026B40051460EA804F0F2F80EA90AA804F020FE70
:1026C40093E731461AAA04F108000A9500F03AFA91
:1026D40008B9032638E04FF0FF384FF000092A46C6
:1026E40028462C4646464F46AB46DDF8CCC01AABCE
:1026F400944552D1002F08BFB6F1FF3FE9D0BBF19A
:10270400000FE6D0002103F0C5FA0AA9C0B2FFF712
:1027140011FB0028DDD156EA0703DFF848A10BD1ED
:102724000A9BCAF800009A680023424573EB090328
:10273400CFDB484BC3F800800023DAF80010BB421B
:1027440008BFB1423FD0002632464921424803F037
:102754001CFF4FF0FF323C493A4804F0C0FD3F49AA
:10276400394804F09BF832463748F31704F094FDD7
:102774004EB93B49344804F091F83A4B32481A6850
:10278400334604F081FD30492E4804F0B9FDFFF7CB
:10279400E3FD0A9803F026FF35E7197C032904D8E2
:1027A400DFE801F00206090E9868013214339FE74E
:1027B400D3E902B4F9E7996888464FEAE179F4E786
:1027C4009E68F717F1E7234B21441A689846914213
:1027D4003FF67FAF0A9803F085FFB4FBF0F303FBE9
:1027E4001043DAF80000D8F800200119914238BFEC
:1027F400E41A0EA9204428BFDDB2FDF7D3FE064635
:1028040020B14521184803F0C0FE9DE7174B0E9AEE
:1028140019681F468A4233D0492115481A6003F0CB
:10282400B4FEDDE90E120A9803F02CFF064638B315
:10283400324645210F4803F0A8FE85E7085C0120D5
:10284400144501200C5C01201C5C0120F27F000077
:102854003DB8F396305C0120D1800000EF7F00008A
:10286400DF8000002C5C0120068000001C45012054
:102874003180000054800000F97F0000FE7F0000DA
:10288400DAF8002049213E48A31803F07EFE002D0B
:1028940049D0661B30D033465A46DAF800100A98FD
:1028A40003F0BEFE00287FF414AF2C46DAF80030A3
:1028B400B3443344CAF800302A46594612A804F0F7
:1028C4001BF90A9803F017FF12ABC5F10802014681
:1028D400581904F03CF90A9DDAF8001028460791CB
:1028E40003F000FF03462846079912AA03F098FE56
:1028F40000287FF4EEAE01E0002CDDD1DAF80030E0
:102904001C44D8F80030CAF800409C427FF41BAF46
:102914000A9803F09DFA0EA9FDF744FE064640B15D
:10292400452118486FE723465A46DAF800100A98FA
:10293400DCE70E9A3B689A427FF705AF49211248BB
:1029440003F023FEDDE90E120A9803F09BFE06460F
:1029540000283FF4F9AE6BE7002B7FF454AEE37923
:10296400012B3FF412AE052B7FF44DAEFFF786FD2D
:10297400064804F0E9FC0120FFF78EF943E600BFA6
:1029840077800000978000003180000090D0030021
:102994002DE9F3411B4F002405463E461A4BDFF850
:1029A4006C8000941860C4F500712B6801AA013191
:1029B400381998470028019B01DC002BF3D004440C
:1029C4002BB940F201239C42EDD10024EBE733788C
:1029D400062B09D17378092B0BD100230093694688
:1029E400A01EFFF76BFD04E0042B02D17378142BB7
:1029F400F5D00128E9D1009940460239FFF79CFD42
:102A0400E3E700BF60640120045C012061620120EF
:102A14002DE9F041076805460C4617B90020BDE8CA
:102A2400F08100231A46D0F8088003F0D7FF88B15C
:102A3400D4E900123E4804F04FF8064650B9034664
:102A4400024604F10801284603F08EFF10B12674F3
:102A54000120E4E7002321461A4628462F60C5F8E2
:102A6400088003F0BBFF80B1D4E90012314804F0C0
:102A740033F8034648B9024604F10801284603F036
:102A8400ADFF10B101202074C9E7002321461A4686
:102A940028462F60C5F8088003F0A0FF80B1D4E970
:102AA4000012254804F018F8034648B9024604F118
:102AB4000801284603F058FF10B102232374C7E726
:102AC400002321461A4628462F60C5F8088003F0E3
:102AD40085FF78B1D4E90012184803F0FDFF0346DE
:102AE40040B9024604F10801284603F03DFF08B14D
:102AF4000323E3E7002321461A4628462F60C5F83E
:102B0400088003F06BFF002888D0D4E900120C4839
:102B140003F0E2FF0346002880D1024604F10801D5
:102B2400284603F05BFF00283FF478AF0423C5E791
:102B3400B27D0000E3800000E8800000DF80000038
:102B4400EC80000070B501258CB0014409AE05236A
:102B540009900A91144630462A4607A90B9503F0BA
:102B640048FF002360B11422CDE90143CDE90332CB
:102B740005212846044B009604F1640203F057FF34
:102B840000F001000CB070BD152A00001EF0040F07
:102B94000CBFEFF30880EFF30980816911F8021C80
:102BA4000229FFD001B503F06FFF01BD43B2002B32
:102BB40008DB012200F01F0002FA00F0024A5B0960
:102BC40042F82300704700BF00E100E0054B4209D2
:102BD40053F82220012300F01F0003FA00F01040F4
:102BE400704700BF00E100E043B2002B01F1010196
:102BF400ACBF03F16043064B4FEA4111C9B2ABBF0E
:102C040003F5614300F00F0083F800131954704773
:102C140014ED00E00446084611461A460023E1EE8E
:102C2400103A83F30B880A4B2025A3F5205686F32C
:102C34000B8883F3098863B64FF0000383F311888C
:102C4400BFF36F8FA04785F31188BFF36F8FFEE743
:102C5400A88E0120014910220A60704710ED00E09F
:102C640072B6404080F31188BFF36F8FBFF34F8F6C
:102C740030BF62B6BFF36F8F704700BF72B6494072
:102C840081F3118820BF80F3118862B6704700BFBA
:102C940037B505460C46C9B18B6810480093D1E995
:102CA4000023452103F071FC636945210093D4E9B5
:102CB40003230B4803F069FC4521E269094803F04A
:102CC40064FC4521A269084803F05FFC21462846BC
:102CD40003B0BDE8304001F08BBB00BFF0800000C2
:102CE40024810000588100006C81000030BFFFF790
:102CF400FDBF00BF144A08B5144B22F07F029A604E
:102D0400BFF34F8FBFF36F8FD3F8882022F4700284
:102D1400C3F88820D3F8882042F4A002C3F888209E
:102D24004FF04042C3F83422BFF34F8FBFF36F8F8D
:102D34000023E1EE103A01F099FB01F0EFFB00F003
:102D440061FA01F0B5FB00BF0000000000ED00E0F7
:102D540001B5EFF30580A0F110004FEAC00004496B
:102D6400014409C99847BDE80140024908470000E9
:102D74000074000075310000002080F31488BFF354
:102D84006F8F002080F30A8880F30B8803F0FBFB2D
:102D940000200E490860BFF34F8F0D4880F3088868
:102DA40000F00AFA202080F311880A484FF40061E9
:102DB400401880F30988EFF314800221084380F35C
:102DC4001488BFF36F8FFFF795FF000094ED00E0C8
:102DD400A88E0120A88E0120EFF30880EFF309816B
:102DE40001B5724600F008F901BD00BF70B5224C70
:102DF40006460D462148452103F0C7FBA26AD006CA
:102E040003D545211E4803F0C0FBA36A190703D567
:102E140045211C4803F0B9FB174CA36A9A0710D547
:102E24004521194803F0B1FB626BA36A1B0608D560
:102E34004521164803F0A9FB1EB1A36A23F08003C1
:102E4400A3620D4CA26AD00703D54521104803F0B4
:102E54009CFBA36A990603D545210E4803F095FB14
:102E64000020054B9A6AD20658BF9A6A9A6A42F0C1
:102E7400FF029A62287070BD00ED00E09F8100009F
:102E8400BA810000F28100000A820000278200005B
:102E9400428200006682000070B5234C06460D464F
:102EA4002248452103F071FBA26AD10403D54521D0
:102EB4001F4803F06AFBA36A1A0503D545211D4880
:102EC40003F063FB184CA36A9B0510D51A484521EF
:102ED40003F05BFBA26BA36A180408D545211748CD
:102EE40003F053FB1EB1A36A23F40043A3620E4C08
:102EF400A36A590503D54521114803F046FBA36A8B
:102F0400DA050BD545210F4803F03FFB0020064AA4
:102F1400936A43F47F439362287070BDA36A9B0451
:102F2400F4D545210848EFE700ED00E09A8200005F
:102F3400B5820000F2810000CB820000E98200002B
:102F440003830000238300006682000038B5214C0F
:102F54004521214803F019FBA26A950103D54521B7
:102F64001E4803F012FBA36ADC0103D545211C486B
:102F740003F00BFB174DAC6A14F4801404D0452104
:102F8400184803F002FB0224AB6A180303D5452159
:102F9400154803F0FAFA0F4DAA6A510303D54521E7
:102FA400124803F0F2FAAB6A9A0303D5452110489C
:102FB40003F0EBFA074DAB6ADB0303D545210D485B
:102FC40003F0E3FAAB6A20466FEA03436FEA134364
:102FD400AB6238BD00ED00E0408300005D8300007B
:102FE4007583000094830000C3830000E68300001F
:102FF400108400002F8400002DE9F0434A4B002583
:10300400D3F804908BB0C9F3080885F31188BFF393
:103014006F8F02F07F43B3F17F4F07D102F00C03AF
:10302400082B05D14521414803F0AFFA2F4604E0AF
:1030340012074EBF0F46074601250022A8F10306DA
:1030440014468DF80720092E5BD8DFE806F0054FFB
:1030540053335A5A5A5A5A574521354803F095FA68
:10306400314B8DF80740DC6A14F0020405D0452189
:10307400304803F08AFA00241FE0DB6A5B001CD5A9
:1030840045212D4803F081FA2C4B1B782BB10120EC
:103094000DF10701FFF7AAFE0EE0294B1B782BB1B7
:1030A40001200DF10701FFF7F7FE05E0254B1B8812
:1030B4009BB213B1FFF74AFF04469DF8073093B95A
:1030C4002022394602A803F017FD099B35B3C3F348
:1030D400080222B96FEA53236FEA43230993204677
:1030E40002A9FFF7D5FD0BB0BDE8F08300200DF178
:1030F4000701CFE700200DF10701D4E7452112486D
:10310400B7E7124919F4F87F114A124808BF0A4672
:10311400A8F11003452103F038FAACE723F4FF7358
:1031240023F00103DAE700BF00ED00E08D84000026
:10313400BD840000D9840000FF84000028ED00E075
:1031440029ED00E02AED00E0238500005F84000003
:10315400748400004C850000044B5A6942F010024C
:103164005A615A6942F480625A61704700ED00E086
:10317400704700BFBFF34F8F0549064BCA6802F47E
:10318400E0621343CB60BFF34F8F00BFFDE700BF86
:1031940000ED00E00400FA0500231846054A116812
:1031A400C1F307218B4200D1704793601061013352
:1031B400F8E700BF90ED00E010B572B6002484F388
:1031C4001388FFF7E9FF0E4A234611464FF0FF34F8
:1031D40003F120000133102B42F82040F8D10023E2
:1031E4004FF0FF3003F160020133102B41F822004D
:1031F400F8D162B6BFF34F8FBFF36F8F10BD00BF1E
:1032040000E100E0002320210348C2180133412BD0
:1032140082F80013F9D1704700E100E00121024B6C
:10322400024A034800F00CB90000042000450120C4
:10323400B477000010B50B680C7A23F01F0204F079
:103244001F031A43CB68640923F01F03044943EAAC
:10325400440343F001038860CA600B6110BD00BFE2
:1032640090ED00E030B54B680C6885B00A898D7A22
:103274000094013B24F01F04234402F01F0242EA9D
:10328400451223F01F030F2804468DF808200393EA
:1032940009D902464521064803F077F96FF0150471
:1032A400204605B030BD6946FFF7C4FFF8E700BF0C
:1032B400688500002DE9F04F8946144606464FF014
:1032C4000008524D85B0C84523DA7768002F42D0F4
:1032D4001F2F17D9FB0615D1D6F800A01AF01F0F1F
:1032E40010D1504603F0DBFB834607EB0A0001389C
:1032F40003F0D5FB834510D06FF0150B5A464521DA
:10330400434802E042464521424803F03EF96FF04B
:103314001504204605B0BDE8F08F1BF1160FEDD063
:10332400631E5B45EADBC5F808B0E968C5F808B078
:103334002F6921F01F01D6E900321A44994247F05F
:103344001F0702F1FF3A1CD1574508D131465FFAF5
:103354008BF0FFF787FF08F101080C36B3E731461D
:10336400C5F808B0EB6822F01F0203F01F031A43EC
:10337400EA60E0B2FFF776FF10F1160FC7D0441CE5
:10338400E9E7013B5745E0B223F01F03C5F808B055
:1033940006D12A69314602F01F0213432B61E9E783
:1033A400296901F01F010B432B613146FFF75AFFD6
:1033B40010F1160FABD0C5F808B0EA689DF80830D4
:1033C400013F62F304038DF808302B699DF808204F
:1033D4005B0863F347128DF80820D6E900321344E2
:1033E400009323F01F033B44441CA3EB0A0AE0B2FE
:1033F4002AF01F030F28039303D9024645210648E8
:1034040083E76946FFF716FFB9E700BF90ED00E0D8
:10341400BB85000093850000688500000522034BEE
:103424005A60BFF34F8FBFF36F8F704790ED00E08A
:10343400BFF35F8F0022014B5A60704790ED00E0AC
:1034440010B5034C2278FFF735FF207010BD00BF84
:103454006166012038B50E4C2568102D14D8FFF78D
:10346400E7FF00200B4B0C4A1A63854205D10B4B36
:103474001D70FFF7D3FF002038BD616801EB001118
:10348400FFF7D8FE0130F0E74FF0FF30F4E700BF5C
:10349400C077000090ED00E0AAFF440061660120BF
:1034A400064A00F01F0002EB8000D0F8003223F43B
:1034B400403343EA0141C0F80012704700258450AC
:1034C40008B5094B1A786AB901210D201970052134
:1034D400FFF78AFB0D20FFF769FB4FF00042034B17
:1034E400C3F80423002008BD6266012000D0005008
:1034F400F7B50E46416806F01F05097AB2F5A03FFC
:10350400076945EA41150AD15C4805F01F0180317D
:1035140050F82110C80707D56FF0850093E0B2F585
:10352400005FF96800F091800121F868B14001431F
:10353400F96001217869B140B2F5A03F0CBF08439E
:10354400884378610020BA69B3F5C02F0CBF0A43E1
:103554008A43BA613A69B3F5802F0CBF114322EA5A
:103564000101474A3961D2F80433DBB200F5A27194
:1035740052F82110C1F304218D426BD123FA00F1DA
:10358400C90767D5830003F1A04303F55043D3F87B
:10359400101521F00101C3F8101501238340C2F86E
:1035A4000833C0B200F044FE28460021FFF778FF3C
:1035B400F868F04010F0010045D07869F04010F050
:1035C40001044ED0BB690DF10700F340DB0757BF80
:1035D4003969032621FA06F606F001065CBFC6F136
:1035E4000206F6B200F046FE264B984236D1002081
:1035F4009DF807102D028B0003F1A04303F55043FF
:10360400D3F8102505F4F85522F4473222F4407219
:10361400C3F81025D3F8102515438A0002F1A042FF
:1036240002F5514245EA0646C3F810651060126877
:10363400D3F8102542F00102C3F810250123104AE3
:103644008B40C2F8043303B0F0BD0120B04021EA3E
:1036540000016DE70130082888D1A5E76FF012005A
:10366400F1E739692846F14001F00101C1F1030194
:10367400C9B2FFF715FF2046E5E700BF00258450D7
:1036840000D000500000AD0B284B70B546682848A8
:10369400134083423BD00DD8062B15D005D89BB1DF
:1036A400022B36D06FF0150030E0B3F5801FF9D14E
:1036B400012309E01F4883422DD0B3F5A00F2CD07D
:1036C400B3F5800FEED10223D0064CBF0325C2F31D
:1036D400401582F4807412F4007FC2F34020C4F3D6
:1036E400002406D012F4006F766818D001228A40B4
:1036F400B26040EA4402002042EA032301F01F01C1
:103704000D4A43EA8503803142F8213070BD072316
:10371400DAE70423D8E70523D6E70323D4E75205E1
:1037240042BF01228A40F260E3E700BF0600F000D6
:103734000600100002004000002584502DE9F84FD7
:10374400454D2E68002E5BD0444B4FF00108D3E961
:103754000520D968024321EA0209414A4F464FF045
:10376400000B924614691B695C4029EA04047FBB80
:103774002F602B68002301251F463A48D0F8042304
:1037840005FA03F1114211D09A0002F1A04202F5A8
:103794005142116851B103F5A27150F8211017601C
:1037A400C1F3042105FA01F112680C430133082B1B
:1037B400E4D13CBB56B101260027284DEC68D5E97D
:1037C40005210A4324EA0204002C33D1BDE8F88F12
:1037D40018EA070F0FD018EA090F0BF01F0008BFF3
:1037E40000F180034FF0000108BF5AF82330FFF7BF
:1037F40057FE27EA08070BF1010B4FEA4808B6E722
:103804003446B7E7154B59680029D3D00D68164FD5
:10381400002D38BF00258A68224002D038464B6804
:103824009847002DC6D02B682946002B38BF0023AB
:103834001D46F0E726420CD0296907F01F00F94025
:1038440001F00101C1F10301C9B2FFF729FE24EA25
:10385400060401377600B7E77CD10050385C0120BC
:103864000025845000D000503C460120024B0B60E0
:1038740001231360704700BF585C01200048704763
:103884003078000010B503F08DFC034C206003F089
:1038940086FC6060002010BD585C0120F8B50E461F
:1038A400144603F07CFC21460546304603F0BDF97E
:1038B4003746F8B1B6FBF5F305FB136323B9B4FB44
:1038C400F5F305FB134040B12346324645210C482D
:1038D40002F05BFE6FF015000BE0A54209D803F07F
:1038E4005EFC0546384600F007FD641B2F44F9D101
:1038F4002046F8BD2346324645210248E8E700BF8A
:10390400F28500001686000037B50C46194620469D
:103914000193154603F089F9019B40B909482246F1
:10392400452102F032FE6FF0150003B030BD33B113
:103934001A462146284603F0DFF80020F5E718462A
:10394400F3E700BF16860000F8B50E461946304668
:1039540017461C4603F069F940B92346324645210F
:10396400124802F012FE6FF01500F8BD44EA060595
:1039740015F0030504D02346324645210C48F0E7F0
:103984008CB12B19032BA6EB050006D8094AD2F8F3
:103994000034DB07FBD50020E7E77B1B196800F048
:1039A400C9FC043DEDE72046DFE700BF16860000B2
:1039B4003886000000900350F0B54B79012B2AD0D3
:1039C400032B25D110268B79032B21D1CC792CB153
:1039D400012C1DD143685B689B0719D00A7912B189
:1039E400022A15D10E220B684568B3F5164F2D68CF
:1039F40065D02DD8B3F5165F64D016D8B3F5966F9D
:103A040062D00AD8B3F5967F61D0B3F5167F61D042
:103A14006FF0850052E00026D5E7B3F5166F5CD051
:103A2400B3F5965FF4D1374B3CE0B3F5E14F57D093
:103A340007D8B3F5615F55D0B3F5964FE8D1324B53
:103A440030E047F61227BB42E2D14FF4000329E0ED
:103A5400B3F5613F48D013D8B3F5963F47D009D8A2
:103A64004DF6C027BB4244D0B3F5614FD0D14FF4DB
:103A74006B0317E0B3F5E13FCAD14FF0EB7311E0EC
:103A8400B3F5612F38D008D8204FBB4237D0B3F5F7
:103A9400E12FBDD14FF0E86304E01D4FBB42B7D125
:103AA4004FF08053C5F8243503693443224304336B
:103AB40003C9C5F86C2583E803000020F0BD4FF46A
:103AC4001D03EFE7134BEDE74FF49E23EAE74FF4B2
:103AD400A033E7E74FF41C33E4E74FF41D23E1E799
:103AE4000D4BDFE70D4BDDE74FF06C73DAE70C4B62
:103AF400D8E74FF46503D5E74FF07063D2E74FF092
:103B04008063CFE700B0130000A04E0090D0030004
:103B140040420F000050270000C0750000F03A003A
:103B240000903A01F8B505460F46066903F006FC15
:103B340010B91E4B1B78A3B94FF02003EFF3118487
:103B440083F31188BFF36F8F284603F060F900BB3D
:103B540084F31188BFF36F8FEEE784F31188BFF30A
:103B64006F8F6424284603F052F928B9012003F02A
:103B740006FB013CF6D1F4E74FF02003EFF3118488
:103B840083F31188BFF36F8F284603F040F90028B0
:103B9400E3D031460122284601F8147F03F0C8F926
:103BA40084F31188BFF36F8FF8BD00BFA3660120B3
:103BB40043682DE9F0411C68002306690F46C4F8E8
:103BC40000350546306008680121444B00F01F02AF
:103BD400914099600321803243F822107A68511C85
:103BE4001FBF4FF00C0C02F01F01803143F821C0BD
:103BF400B968C4F80C05481C18BF0C20C4F8142577
:103C04001EBF01F01F02803243F82200F868421CF4
:103C14000CD04FF0010C00F01F020CFA02FCC3F8A8
:103C240008C04FF0030C803243F822C0C4F80805E2
:103C3400C4F81015296928460431FFF7BDFE8046F3
:103C440080B96B685B6819071CD506F1160000F093
:103C5400C5FA234B984208D04521224802F095FC2E
:103C64006FF004084046BDE8F081B37D43F00043A3
:103C7400C4F8A031C4F88C300123B27D93401A4AB1
:103C8400C2F804350823C4F800357B6801330CD02E
:103C94000023C4F81031D4F8103106F11503C4F828
:103CA40034350123C4F8383523606B6814365B68F7
:103CB4001A075CBF4FF48072C4F80423DB0644BFC8
:103CC4004FF48003C4F804330023C4F84465C4F8F3
:103CD40048350123A360E360C4E700BF0025845096
:103CE4000000AD0B658600000070015030B585B052
:103CF4006C460546084B0FCB84E80F0000220121D7
:103D04000820FEF771FF0820FEF750FF21462846E1
:103D1400FFF74EFF05B030BD9076000030B585B09A
:103D24006C460546084B0FCB84E80F0000220121A6
:103D34000920FEF759FF0920FEF738FF21462846DF
:103D4400FFF736FF05B030BDA076000003484521DB
:103D540008B502F01AFC0020FFF70CFAA086000058
:103D6400816808B5044A1023103902F059FC003860
:103D740018BF012008BD00BF9478000030B50C4680
:103D8400816887B0102302AA1039054602F02BFC83
:103D9400002811DB1022284602A903F047F968B174
:103DA40003232370A968012328460DF1070228394B
:103DB40002F019FC00280BDA01202AE0102216492F
:103DC40002A802F089FE002814BF02230123E8E7B9
:103DD4009DF80730284603F00F021B096270237117
:103DE40001220DF1070103F021F910B96378042BC6
:103DF40003D90123637000232371AA682846203A5B
:103E0400A11C03F03BF90028D6D12846E11C03F09D
:103E14008EF907B030BD00BF947800002DE9F0435F
:103E240085B06946022003F086F918B1FF2005B079
:103E3400BDE8F083062002A903F07DF90028F5D13E
:103E440002469DF800509DF808609DF803709DF8A7
:103E54000B809DF802901E4C2946207803F0FAF856
:103E640000B33146607803F0F5F8D8B1A378042B99
:103E740001D0BB4216D1E378042B01D0434511D1C4
:103E84002379042B0CD16379022B16D1114A1248E1
:103E9400492102F07AFB6079831E022BC7D9C5E75A
:103EA4004B45F0D00132032A04F10604D4D10B4867
:103EB400492102F06AFB0120B9E7032B05D0084A27
:103EC4000849042B18BF0A46E1E7074ADFE700BFA9
:103ED4000D870000C9860000E5860000F886000012
:103EE400C2860000D3860000CE860000054B186809
:103EF400043B1B68092B03D1431E584258417047A9
:103F0400002070473401FF0008B54C4B1B68092B97
:103F140001BF4FF050230022C3F81421C3F8182125
:103F2400FFF7E4FF30B10123454A1360A2F63822BB
:103F3400C2F87835414B1B68092B07D1414B1B68EC
:103F4400012B1EBF0122404BC3F87825FFF7CEFF9B
:103F540010B10E223D4B1A60384B1B68092B04D15B
:103F640000223B4B1A6001225A600022D30003F561
:103F74007F03D3F80013013108D0D3F800130132C2
:103F8400D3F80433B2F5807F0B60EFD1314BDA699B
:103F9400D1073BD5304B1946D3F80024012AFBD175
:103FA400C3F80425D1F80034012BFBD1294BDA697D
:103FB400D20708D5DA69284922F00102DA61D1F87A
:103FC4000024012AFBD11A6A01320AD11A6A22F0AA
:103FD400FF0242F020021A621F4AD2F80034012B79
:103FE400FBD100221C4BC3F80425D3F80024012A7A
:103FF400FBD1BFF34F8F1949194BCA6802F4E06231
:104004001343CB60BFF34F8F00BFFDE71B6A01333F
:10401400C0D0124BD3F88C2042F44062C3F88C20F9
:10402400D3F8882042F47002C3F88820BFF34F8F7E
:10403400BFF36F8F0B4B0C4A1A6008BD3001FF00B1
:10404400384A00503401FF0000400050E4AE0350F1
:104054000C4700500080FF000090035000ED00E08A
:104064000400FA05784501200090D003044B1A7926
:1040740022B9012218601A71024870470248704739
:10408400685C01200000AD0B0C00AD0B10B10128E1
:1040940020D070474FF05022D2F81834D2F81814B8
:1040A400C90311D503F00303022B0DD1C2F818354F
:1040B40000220D4B1A601B6802224FF05023C3F8F4
:1040C400042301229A6070474FF050230122C3F861
:1040D4001825EDE70022054B1A601B684FF05023AA
:1040E400C3F8040318607047045100500051005095
:1040F40038B510B1012818D038BD4FF05023022232
:10410400012142F210751C46C3F80823154A1060B9
:104114001268154A1160D4F81834DB03ECD5012079
:1041240003F02DF8013DF6D1E6E74FF050240022CC
:1041340042F210750D4BC4F808031A601B680C4B4F
:104144001860D4F80C34D4F80C2403F00103D2031F
:10415400D2D5002BD0D0012003F011F8013DF0D1CD
:10416400CAE700BF045100500C50005000510050E9
:1041740004500050164B10B51A6852B10020186054
:104184001B6801224FF05023C3F80823114B1B680E
:104194009847114B1A688AB100221A601B684FF0C5
:1041A4005023D3F81824D3F8181402F00302012A78
:1041B4004FF0020103D1C3F818159A6010BDC3F87B
:1041C4000813044B0120BDE810401B68184700BFCA
:1041D40000510050685C012004510050F0B54FF0CC
:1041E4002003EFF3118783F31188BFF36F8F0D4A18
:1041F4001668F14389B291B10025ECB221FA04F3B7
:10420400DB0705F10105F8D50123A340334304700E
:104214000548136087F31188BFF36F8FF0BD03481F
:10422400F8E700BF705C01200000AD0B0200AD0B8D
:10423400012303FA00F010F0FF0F12D04FF0200317
:10424400EFF3118183F31188BFF36F8F064AD36CA8
:1042540023EA0000D06481F31188BFF36F8F034811
:1042640070470348704700BF745C01200000AD0B29
:104274000400AD0B2DE9F041FF2200240126054680
:10428400DFF858E01448DFF85880E3B24FF020011B
:10429400EFF3118C81F31188BFF36F8F22FA03F1CE
:1042A400C9070AD5DEF84C1006FA03F7394201BFF4
:1042B40040463943CEF84C102B708CF31188BFF371
:1042C4006F8F404505D006FA03F39A4304F10104C5
:1042D400DBD1BDE8F08100BF0200AD0B745C0120AE
:1042E4000000AD0B0022034BC3F88425C3F804255A
:1042F400704700BF0090035008B5C0F30B0383B9A7
:104304000222094BC3F88425C3F804254FF0FF3279
:104314000260D3F80024D207FBD5FFF7E3FF03487C
:1043240008BD0348FCE700BF009003500000AD0B3C
:104334000A00AD0B0122074BC3F88425C3F80425FA
:10434400D3F80824D207FBD50160BFF35F8FFFF7D2
:10435400C9BF00BF009003500E4B70B553F8204006
:10436400013053F82060A64200D870BDD4E900356E
:104374002846984765B1EB6830B10028B8BF404281
:10438400FF28A8BFFF2018705A7842F001025A7023
:104394000834E8E7A478000070B5054610B9002495
:1043A400204670BD0378002BF9D00F4A0F4C1646F7
:1043B400944208D10D4CB442F1D0204602F0B5FF2E
:1043C40050B91834F7E7204602F0AFFF10B1236864
:1043D400AB42E5D01834EBE72846216802F070FBC5
:1043E4000028EED1DCE700BF6C460120DC4501204B
:1043F40073B504460D464FF02003EFF3118683F3A3
:104404001188BFF36F8F0022042896BF114B124B03
:1044140053F82030009245210246104802F0B5F8C6
:104424003DB1EB69C3F308031BB145210C4802F00D
:10443400ACF800220B4B45210B4802F0A6F82946A4
:104444002046FFF783FC86F31188BFF36F8F02B019
:1044540070BD00BFB87800001F8700002D870000E2
:104464005A87000080870000888700000248034ABA
:104474000021121A02F06BBB70460120A4660120D1
:10448400012208B5084B02201A70FFF765FF02F0FD
:104494005FFF0320FFF760FFFBF7CCFF034A137BAA
:1044A40023F00103137308BDA366012070460120A5
:1044B40008B5174B03F5006282F3088883F30A8872
:1044C4000025E023134C84F82230E57725766576C1
:1044D400A576636A43F4E0236362FEF73DFEFEF7CC
:1044E400B9FB4FF0FF33A362E362FEF7B3FFFEF7BD
:1044F40095FE02F019FF2846FFF72EFF0120FFF773
:104504002BFF2B462A4629460348FEF783FB00BFB0
:10451400A88E012000ED00E08544000008B506489F
:10452400064A0749121A02F0E7FABDE80840054AAC
:104534000549064802F0E0BA004501206C46012016
:104544000C88000000000000F487000000450120F2
:1045540010B50A4C23681BB101230020236010BD51
:1045640000F048F80028F7D00138062803D8044B97
:1045740053F8200010BD034810BD00BFC45C0120E7
:10458400CC780000FE8FFFFFBFF34F8F0549064B29
:10459400CA6802F4E0621343CB60BFF34F8F00BFDD
:1045A400FDE700BF00ED00E00400FA054FF0FE3324
:1045B400002130B4064A074D074C2B60136023607A
:1045C400064A074CEB606368C2F8001530BC184714
:1045D400041484500014845008148450000084503F
:1045E4007C450120024BD0E90012C3E90012704758
:1045F4007C45012010B500F033F820B1032400F00D
:1046040067F8204610BD00F035F890B900F0B0F816
:1046140090B90F4B1B681B0EF02B08D10D4A0E4BA3
:1046240012689A420AD0072400F01CF8E7E706242F
:10463400FAE70424204610BD0024F5E7012000F029
:1046440097F804460028F7D1044B1860D9E700BF57
:1046540028198450241A84500000E0200C1A845035
:104664000020704700207047014B1860704700BF5E
:10467400041A845010B5114800F048F800B110BD78
:104684000F4800F043F80028F9D10E4C204600F002
:104694003DF80028F3D10C4B0C481C6000F036F8B0
:1046A40001460028EBD100F02DF8044608B120465D
:1046B40010BD00F03FF82046FAE700BF9045012006
:1046C400844501208C450120944501208845012022
:1046D40008B5084800F024F8074800F021F8074816
:1046E40000F01EF8064800F01BF8BDE8084000F092
:1046F4000BB800BF90450120844501208C45012062
:104704008845012000207047704700BF08B5034B5F
:1047140002681B6810689847002008BDA045012066
:1047240008B5034B02685B6810689847002008BD11
:10473400A045012070B5094C094D2069AB68984724
:1047440018B1084B08485B6898470021074AEB6892
:1047540011602069BDE87040184700BFB0450120D2
:10476400A04501207C450120E8780000C85C0120B8
:1047740070B51A4D1A4E0446B26828699047F0B9CC
:104784005CB1184C2368ABB1012B1AD0013B2360F8
:104794002869F3689847002070BD124C216839B924
:1047A4000120114B114AC3F800051368002BFCD1FA
:1047B40001312160F36828699847002070BD0C48D6
:1047C40070BD0A4A1368002BFCD1074A6FF07E4083
:1047D400C2F80035FFF748FF2368D7E7B04501204A
:1047E400A0450120C85C01200000845010198450A9
:1047F400E98FFFFF48B143682BB1BFF35F8F0023FC
:10480400036018467047024870476FF4E0407047F1
:10481400EA8FFFFF10B5044628B1636813B1002383
:104824002360636010BD024B02485B689847F4E75D
:104834007C4501200879000010B5044630B10022FF
:104844006368226043F00103636010BD0148FFF711
:10485400ADFEF4E73079000080B1436863B1012212
:10486400D0E8EF3FC0E8E12F0029F9D1012BF7D0C0
:10487400BFF35F8F00207047024870476FF4E04039
:10488400704700BFEA8FFFFF30B10268034B044852
:104894009A4208BF0020704702487047DD55AABB02
:1048A4008208F0007108F00038B50D460446B0B136
:1048B400A0220021043002F066FD95B108222946A9
:1048C40004F1640002F065FD082205F1200104F101
:1048D400840002F05EFD0020034B236038BD0348D2
:1048E400FCE70348FAE700BFDD55AABB7108F000F6
:1048F4008308F0002DE9F74305460E469946114614
:10490400FFF7C2FF0446002840F08480002E00F028
:104914008580002900F08480B9F1200F40F0828066
:1049240005F14404082205F10408204602F031FD93
:1049340005F1240708223146404602F02AFD06F11B
:1049440020010822384602F024FD02A941F8049D02
:104954004FF4807002F011FD002865D14FF480738C
:10496400324A0121136093600823314A00F034FB7A
:104974000121052308462F4A00F02EFB0823424656
:1049840001211C2000F028FB08233A4601210320C2
:1049940000F022FB224608230121022000F01CFB28
:1049A4000823254A01211A2000F016FB0523234A77
:1049B40001211B2000F010FB0823214A01211420AF
:1049C40000F00AFB08231F4A0121152000F004FB14
:1049D400082305F164020121162000F0FDFA0823E2
:1049E40005F184020121172000F0F6FA0823164A83
:1049F40001210B2000F0F0FA00F04AFB0446019874
:104A040000F0D8FA114B002C18BF1C46A4212846EC
:104A140002F0BBFC204603B0BDE8F0830C4CF9E780
:104A24000C4CF7E70C4CF5E7084CEFE7901084507A
:104A3400947900000C7A000054790000F8790000A1
:104A4400B8790000D8790000747900008408F00077
:104A54007608F0008008F0008108F000C2690C4B71
:104A64001A60826943F8042C426943F8082C0269ED
:104A740043F80C2CC26843F8102C826843F8142CB9
:104A8400426843F8182C026843F81C2C704700BF96
:104A94005C1684500C4B1B68C3610C4B1B68836110
:104AA4000B4B1B6843610B4B1B6803610A4B1B6870
:104AB400C3600A4B1B688360094B1B684360094B46
:104AC4001B680360704700BF5C16845058168450FE
:104AD40054168450501684504C16845048168450F2
:104AE400441684504016845030B10268034B044885
:104AF4009A4208BF0020704702487047DD55AABBA0
:104B04000202F0000002F00038B5044668B1051D49
:104B14007021284602F039FC28462022044902F07C
:104B240030FC0020034B236038BD0348FCE700BF82
:104B3400207A0000DD55AABB0002F0002DE9F04305
:104B440085B015466F46274B04460E460FCB87E8C3
:104B54000F002DB94FF00009484605B0BDE8F083B9
:104B64002046FFF7C1FF81460028F5D1231D01939C
:104B7400636AA3BB236F8BB1C3F14008A84528BF68
:104B8400A84604F1300031461844424602F0F9FBCD
:104B9400236F464443442367A5EB0805226F402A4C
:104BA40006D104F13001384600F0B4FB002323673A
:104BB40005F03F0835F03F0505D031462A46384612
:104BC40000F0A8FB2E44B8F1000FC3D04246314692
:104BD40004F1300002F0D5FBC4F87080BCE7DFF8C4
:104BE4000890B9E7B07600000C02F0002DE9FF410F
:104BF40004466F46134B0E460FCB87E80F00204642
:104C0400FFF772FF8046B0B9CEB1636A251D0195E6
:104C14003BB90123226F636204F13001384600F08E
:104C240079FB2B46043E243453F8042B12BAA342D6
:104C340046F8042FF8D1404604B0BDE8F081DFF80F
:104C44000880F8E7B07600000502F000084B1B6806
:104C54001B0EF02B08D1074B1A68074B9A4205D15B
:104C64000020064B186070470520704706207047E7
:104C740028198450241A84500000E0200C1A84500F
:104C8400002230B5134640F6FC754900023802F1A3
:104C9400A15404F5823490424FEA840402F10102E3
:104CA400CABF236025605B181E2AF0D1034A136033
:104CB4000B445360024B034A1A6030BD7810845091
:104CC4008410845020F80F001E4B30B51A4685B06E
:104CD400196800910099CC07FAD500F1A15000F5AC
:104CE40082308000016813680193019BD807FAD5CC
:104CF400154B164C186820231F3090FBF3F0144D0D
:104D04000138002810DA00230130400153B14FF07C
:104D14000042A0F12001134204D1013888424FEA35
:104D24005202F8D105B030BD13680393039BDB072F
:104D3400FAD5431823602B680293029B002BE3D11E
:104D44000138DEE7B4108450AC108450E410845071
:104D5400DC108450F0B51D6885B001F01F040DB956
:104D64001F2C28D1174D2E462F680197019FFF074E
:104D7400FAD500F1A15000F5823080000068356852
:104D84000395039DED07FAD51F2C00EB611018BFA6
:104D9400C9430D4D18BF01F01F0128600B4800687E
:104DA400029002981CBF00FA01F111604FF000015B
:104DB40008BF1060196010684300C00F136005B08D
:104DC400F0BD00BFB4108450E4108450DC10845053
:104DD4000C4B890118603F3020F03F004030586090
:104DE40099600948D9601961596199611C3382B08D
:104DF400196002680192019AD207FAD5196002B0CB
:104E0400704700BF90108450B410845038B5A0F19E
:104E14002003B3F5426F05462CD88F2826D800F11D
:104E2400470300F16604DB064FEA541400D0013452
:104E340064013F34A409013411B1A1421AD30C46D0
:104E44004FF48050E300B0FBF3F0202828BF20206B
:104E540002B110600122084B21461A60FFF710FFCF
:104E640028462146FFF7B4FF002038BD00F11F0497
:104E74006409DDE70148F8E71C1884502221F0009A
:104E8400464BF0B51D4689B01C680194019CE407AB
:104E9400FAD5434B002413449B001A680B181E2BAD
:104EA40088BFC0F11E011F320B1852095343B3F5DA
:104EB400806F84BF4FF48061B1FBF2F1274688BF55
:104EC400091ADFF8E4E000F1A150DFF8E0C000F5D2
:104ED4008230A14233DC2B680493049BDB07FAD5B0
:104EE400304B1B68296805910599CF07FAD52E4CDC
:104EF4002E49236000231E46934203F1010040D152
:104F04001946002620F0010228488A423CD8296824
:104F140006910699CE07FAD52549096828680790AD
:104F24000798C007FAD5216000210C461F488B4220
:104F34002DD100201D499A422CD809B0F0BD2B6810
:104F44000293029BDB07FAD503199B001B682E68AA
:104F54000396039EF607FAD5CEF800300023934259
:104F640003F1010306D1164623F00103B34204D82A
:104F74000134AEE7CCF80070F1E7CCF800700136EC
:104F8400F4E70E600346B7E706600131BDE704604D
:104F94000131CCE708600133CDE700BFB410845081
:104FA400240421147C108450D4108450D8108450CC
:104FB4007810845008B540B1202801464FF007020C
:104FC40028BF20210020FFF75BFF0022014B1A605D
:104FD40008BD00BF1C188450F0B5294D85B02C467F
:104FE4002E680096009EF607FAD500F1A15000F550
:104FF400823080000568206801900198C707FAD5BF
:105004002048214F056002EB8306B24229D10027D4
:105014005A1C1D4E22F001029A4227D8236802939B
:10502400029BDE07FAD5194B0B449B001B681F3308
:105034005B099A4213D2216803910399C907FAD5EF
:1050440000211544056008469B1A0F4A8B4210D86C
:1050540000205A1C0C4922F001029A420CD805B0D7
:10506400F0BD52F804CBC7F800C0CEE73760013377
:10507400D2E710600131E9E708600133EDE700BFD2
:10508400B4108450D4108450D810845024042114B3
:105094002DE9F041814BA0B01D68986820331E466D
:1050A4001A680192019AD707FAD57D4B7D4A1A6096
:1050B40032680292029AD407FAD57B4A1A607B4A74
:1050C4001446116803910399C907FAD5784A1168FF
:1050D400C1F3402137680497049FFF07FAD5754F41
:1050E4001F6027680597059FFF07FAD517680029F1
:1050F40000F0CF80B90540F1CC8031680691069963
:10510400CF07FAD56C491960216807910799C90737
:10511400FAD51168C1F3402137680897089FFF0743
:10512400FAD5664F1F6027680997099FFF07FAD5CC
:105134001268002900F0AF80910540F1AC8032681C
:105144000A920A9AD207FAD5564A1A6032680B9222
:105154000B9AD707FAD55A4A1A6031680C910C9900
:10516400CC07FAD55749196031680D910D99C907D3
:10517400FAD55549196031680E910E99CF07FAD5C1
:105184005249196031680F910F99CC07FAD55049EB
:105194001960504B1E46196810911099C907FAD529
:1051A4003F4C4D4B236033681193119BDB07FAD5B9
:1051B4004A4B236033681293129BDF07FAD5484B9E
:1051C40023603A4B9846196813911399C907FAD585
:1051D400324F386033681493149BDB07FAD522608E
:1051E40033681593159BD807FAD53E4B2360336873
:1051F4001693169BD907FAD53B4B23603368179354
:10520400179BDA07FAD5394B236033681893189B38
:10521400DB07FAD5364B236033681993199BD807FB
:10522400FAD5344B236033681A931A9BD907FAD5FD
:10523400314B236033681B931B9BDA07FAD52F4B42
:10524400236000F01DFC08BBD8F800301C931C9BA5
:10525400DB07F9D53D6033681D931D9BD907FAD54B
:10526400274B236033681E931E9BDA07FAD5254B20
:105274002360D8F800301F931F9BDB07F9D50C4B34
:105284001B6813F4805F204B08BF184620B0BDE8AC
:10529400F0811E48FAE71E48F8E700BF90108450DA
:1052A4008010845000100251C01F7229B410845021
:1052B40088108450C0CF0129C01F0E29C03F002987
:1052C40040010249003184A800001649400108A1A8
:1052D40080440888B0108450C044708880077A41A4
:1052E400C0077E4100006A498006164940006E49A5
:1052F400000200210082202140822021808224217A
:1053040040A161A100C861510308F1000108F10046
:105314000208F100324B2DE9F74F80469246994638
:1053240044681A68002AFCD12E4B9B461A68002A4E
:10533400FCD14FF0FF30019100F094FC802000F08C
:1053440097FC01230720284A284DA2F59E722B6062
:10535400C2F83C011360636A254F264E3B60A36A82
:1053640020463360D8F8003042F8043CD8F80830BE
:1053740098470199D9F80030002BFBD1BAF1000FFE
:1053840020D104221C4B1A60D9F80030002BFBD129
:10539400DBF800A0BAF1000FFAD1D8F80C3020469F
:1053A40098473B6863623368A362144BC3F800A058
:1053B400C3F844A1D9F80030002BFBD12B6003B013
:1053C400BDE8F08F236A4020012B04BF0B4A136011
:1053D4000B4B1960C3F804A000F050FCD4E700BFE5
:1053E40010198450201C84500019845018188450BB
:1053F400CC178450D0178450C81784508416845016
:10540400281C8450544B10B5194698B01A68019260
:10541400019AD207FAD5514B514A1A600A6802928E
:10542400029AD407FAD54F4A1A600A680392039A7B
:10543400D007FAD54C4818600A680492049AD20737
:10544400FAD54A4A1A600A680592059AD407FAD529
:10545400474A1A600A680692069AD207FAD5454A5C
:105464001A600A680792079AD407FAD5424A1A6062
:105474000A680892089AD207FAD5404A1A600A685C
:105484000992099AD407FAD53D4A1A600A680A9221
:105494000A9AD207FAD53B4A1A600A680B920B9A09
:1054A400D407FAD5384A1A600A680C920C9AD207C3
:1054B400FAD5364A1A600A680D920D9AD407FAD5BD
:1054C400334A1A600A680E920E9AD207FAD5314A04
:1054D4001A600A680F920F9AD407FAD52E4A1A60F6
:1054E4000A681092109AD207FAD52C4A1A601A4BFD
:1054F40019461C681194119CE407FAD5174B1860DF
:10550400086812901298C407FAD51A600A681392B0
:10551400139AD007FAD5124A1A600A681492149A98
:10552400D207FAD51E4A1A600A681592159AD4074A
:10553400FAD51C4A1A600A681692169AD007FAD548
:10554400194A1A600A681792179AD207FAD5174AA5
:105554001A6018B010BD00BFB01084508010845081
:105564000093652100043190409665900083612189
:1055740000C3302100C36490008161900046102173
:10558400008111210041442100C320290C4610C888
:105594000086312100C3602140C12829409665213D
:1055A4000013319040962529594614C840043249C5
:1055B400494B10B5194694B01A680092009AD20764
:1055C400FAD5464B464A1A600A680192019AD407F2
:1055D400FAD5444A1A600A680292029AD007FAD5A8
:1055E400414818600A680392039AD207FAD53F4AE1
:1055F4001A600A680492049AD407FAD53C4A1A60DD
:105604000A680592059AD207FAD53A4A1A600A68D6
:105614000692069AD407FAD5374A1A600A6807929E
:10562400079AD207FAD5354A1A600A680892089A86
:10563400D407FAD5324A1A600A680992099AD2073D
:10564400FAD5304A1A600A680A920A9AD407FAD537
:105654002D4A1A600A680B920B9AD207FAD52B4A84
:105664001A600A680C920C9AD407FAD5284A1A6070
:105674000A680D920D9AD207FAD5264A1A600A686A
:105684000E920E9AD407FAD5234A1A600A680F922A
:105694000F9AD207FAD5214A1A600F4B19461C6893
:1056A4001094109CE407FAD50C4B1860086811900C
:1056B4001198C407FAD51A600A681292129AD00790
:1056C400FAD5174A1A600A681392139AD207FAD5C0
:1056D400144A1A6014B010BDB01084508010845065
:1056E4008090652100040990409665908080612136
:1056F4008020082180206490008161900046102160
:10570400008111210041442180202029024610C833
:1057140000860921802060214021282940966521A6
:1057240040962529594614C8504B10B51C4696B0CE
:105734001A680192019AD207FAD54D4B4D4A1A6064
:1057440022680292029AD207FAD54B4A1A604B4A4F
:1057540042EA804022680392039AD207FAD518607D
:1057640022680492049AD007FAD5454A1A60A2F531
:10577400800242EA814122680592059AD207FAD54D
:10578400196022680692069AD007FAD53D4A1A6033
:1057940022680792079AD107FAD53B4A1A60226811
:1057A4000892089AD207FAD5384A1A6022680992F0
:1057B400099AD007FAD5364A1A6022680A920A9AD8
:1057C400D107FAD5334A1A6022680B920B9AD20792
:1057D400FAD5314A1A6022680C920C9AD007FAD58D
:1057E4002E4A1A6022680D920D9AD107FAD52C4AD6
:1057F4001A6022680E920E9AD207FAD5294A1A60C4
:1058040022680F920F9AD007FAD5274A1A602168A6
:1058140010911099C907FAD51A60144B1A461968E1
:1058240011911199C807FAD5114B204919601168D3
:1058340012911299C907FAD51D491960116813917B
:105844001399CC07FAD50B4919601168149114996E
:10585400C807FAD517491960116815911599C90730
:10586400FAD5154A1A6016B010BD00BFB0108450A6
:10587400801084504004419000862929D81001C822
:105884004014419040142129401465210034409073
:1058940000310C90C0400C90C030202940960D90EF
:1058A40000416090031645C8008611210041602123
:1058B400594644C84014459040142D90264870B56C
:1058C400054688B004680094009CE607FAD5234C8A
:1058D40023480460234C44EA83432C680194019CCC
:1058E400E407FAD50360930143EA824242F010448C
:1058F40044F4C0442B680293029BDE07FAD504608B
:105904002B680393039BDB07FAD5174B03608B01CA
:1059140043EA814141F0104343F4C0432E680496A6
:10592400049EF607FAD503602B680593059BDE07F2
:10593400FAD5046041F058412B680693069BDC07B6
:10594400FAD5016042F058422B680793079BDB07A6
:10595400FAD5026008B070BDB0108450C02102298D
:10596400801084508071009880611890354B8EB0FF
:1059740019461A680092009AD207FAD5324B334A74
:105984001A600A680192019AD007FAD5304A1A605F
:105994000A680292029AD207FAD52E4A1A600A6855
:1059A4000392039AD007FAD52B4A1A600A68049224
:1059B400049AD207FAD5294A1A600A680592059A08
:1059C400D007FAD5264A1A600A680692069AD207C0
:1059D400FAD5244A1A600A680792079AD007FAD5BA
:1059E400214A1A600A680892089AD207FAD51F4A0F
:1059F4001A600A680992099AD007FAD51C4A1A60F3
:105A04000A680A920A9AD207FAD51A4A1A600868EA
:105A14000B900B98C007FAD51A600A680C920C9A7E
:105A2400D007FAD5144A1A600A680D920D9AD20763
:105A3400FAD5124A0E211A6000200D230F220EB04F
:105A4400FFF73CBFB010845080108450804301297C
:105A540040633921807001298020542100D1349081
:105A6400C0403490C0302029C0530D90004138907C
:105A7400832308C880E3102100413821CF4308C89C
:105A840001232DE9F04192B0CDE90333624B1D4669
:105A94001A680592059AD207FAD5604B604C2360C8
:105AA400604B19461A680692069AD707FAD55E4BD8
:105AB4001A68D60400F1A8802A680792079AD007CA
:105AC400FAD55A4A22600A680892089AD207FAD587
:105AD4001E68C6F30036002E40F098801220FFF7AF
